10400000         27895871700013837662002P    0000   0426500003000000300 ROMAGNOLE PRODUTOS ELETRICOS SCAIXA                                   11201202213545400074008001600                                                      000            
10407401C3001041 27895871700013837662002000402      0426500003000000300 ROMAGNOLE PRODUTOS ELETRICOS S                                        AV AV DAS INDUSTRIAS PQ INDUST00000               MANDAGUARI          86975000PR                  
1040740300001A00000010400309 0009887928378 ADEILDO MARIANO DA SILVA      000001             014012022BRL000000000000000000000000075062000000000   01N1140000000000000000000000000                                        00          0          
1040740300002B   100010101401400JOSE BENVENUTO GIACOMELI      00000               JOAO DA SILVEIRITAPOLIS            14900000SP14012022000000000000000000000000000000000000000000000000000000000000000000000000000                              
1040740300003A00000010400309 0008764890382 ADRIANO DA SILVA              000002             014012022BRL000000000000000000000000075061000000000   01N1140000000000000000000000000                                        00          0          
1040740300004B   100001559315474GERALDO ARRUDA LEMOS          00000               JARDIM REDENCAOITAPOLIS            14900000SP14012022000000000000000000000000000000000000000000000000000000000000000000000000000                              
1040740300005A00000010400309 0007872280931 ALAN DHONIS JOSE DOS SANTOS   000003             014012022BRL000000000000000000000000075061000000000   01N1140000000000000000000000000                                        00          0          
1040740300006B   100040704644843ASTOR DOS SANTOS SCADA        00000               VITORIA        ITAPOLIS            14900000SP14012022000000000000000000000000000000000000000000000000000000000000000000000000000                              
1040740300007A00000010400309 0009869213184 ALAN PEDRO BONANI             000004             014012022BRL000000000000000000000000080897000000000   01N1140000000000000000000000000                                        00          0          
1040740300008B   100042898673838FREI PAULO LUIG               00000               CENTRO         ITAPOLIS            14900000SP14012022000000000000000000000000000000000000000000000000000000000000000000000000000                              
1040740300009A00000010400309 0008658174474 ALCEU ANTONIO FABER           000005             014012022BRL000000000000000000000000075062000000000   01N1140000000000000000000000000                                        00          0          
1040740300010B   100029396341819LUZIA TONANI GENTIL           00000               RES N ORIENTE  ITAPOLIS            14900000SP14012022000000000000000000000000000000000000000000000000000000000000000000000000000                              
1040740300011A00000010400309 0007875948895 ALEXANDRE VALENTIM CARLOS ARTH000006             014012022BRL000000000000000000000000062698000000000   01N1140000000000000000000000000                                        00          0          
1040740300012B   100043881654844ROQUE POLACO                  00000               TROPICAL       ITAPOLIS            14900000SP14012022000000000000000000000000000000000000000000000000000000000000000000000000000                              
1040740300013A00000010400309 0009956084676 ALEXANDRE VICTOR              000007             014012022BRL000000000000000000000000089655000000000   01N1140000000000000000000000000                                        00          0          
1040740300014B   100027355310828VALDECIR BAITZ                00000               JARDIM SAO LUCAITAPOLIS            14900000SP14012022000000000000000000000000000000000000000000000000000000000000000000000000000                              
1040740300015A00000010400309 0008634945330 ALEXANDRO TORRELI             000008             014012022BRL000000000000000000000000075062000000000   01N1140000000000000000000000000                                        00          0          
1040740300016B   100027980136829JOSE SANCHES                  00000               JD S LUCAS     ITAPOLIS            14900000SP14012022000000000000000000000000000000000000000000000000000000000000000000000000000                              
1040740300017A00000010400309 0007935229024 ALEXSANDRO RIBEIRO DA SILVA   000009             014012022BRL000000000000000000000000075061000000000   01N1140000000000000000000000000                                        00          0          
1040740300018B   100007954774902YOLANDA BERNARDO G FAGION     00000               ALVORADA       ITAPOLIS            14900000SP14012022000000000000000000000000000000000000000000000000000000000000000000000000000                              
1040740300019A00000010400309 0009956084781 ALEXSANDRO SANTANA SANTOS     000010             014012022BRL000000000000000000000000150720000000000   01N1140000000000000000000000000                                        00          0          
1040740300020B   100046290251899JOAQUIM NABUCO                00000               VILA SANTOS    ITAPOLIS            14900000SP14012022000000000000000000000000000000000000000000000000000000000000000000000000000                              
1040740300021A00000010400309 0009938449480 ALISSON ARIEL DOS SANTOS      000011             014012022BRL000000000000000000000000119971000000000   01N1140000000000000000000000000                                        00          0          
1040740300022B   100042080059807DAS ORQUIDEAS                 00000               JARDIM SAO FRANITAPOLIS            14900000SP14012022000000000000000000000000000000000000000000000000000000000000000000000000000                              
1040740300023A00000010400309 0009870628570 ALISSON EMILIANO DA SILVA     000012             014012022BRL000000000000000000000000078111000000000   01N1140000000000000000000000000                                        00          0          
1040740300024B   100012168732400QUARTZO DE CRISTAL            00000               JARDIM DOIS MILITAPOLIS            14900000SP14012022000000000000000000000000000000000000000000000000000000000000000000000000000                              
1040740300025A00000010400309 0009847302176 AMARILDO APARECIDO ROBERTO    000013             014012022BRL000000000000000000000000075062000000000   01N1140000000000000000000000000                                        00          0          
1040740300026B   100014961433888JOSE FORTUNA                  00000               CENTRO         ITAPOLIS            14900000SP14012022000000000000000000000000000000000000000000000000000000000000000000000000000                              
1040740300027A00000010400309 0009869965771 ANDRE JOSE DOS SANTOS         000014             014012022BRL000000000000000000000000143708000000000   01N1140000000000000000000000000                                        00          0          
1040740300028B   100028372461821ESMERALDA                     00000               JARDIM DOIS MILITAPOLIS            14900000SP14012022000000000000000000000000000000000000000000000000000000000000000000000000000                              
1040740300029A00000010400309 0009870591910 ASTROGILDO MONTEIRO DA SILVA  000015             014012022BRL000000000000000000000000078111000000000   01N1140000000000000000000000000                                        00          0          
1040740300030B   100007026237845MERCURIO                      00000               JARDIM DO SOL  ITAPOLIS            14900000SP14012022000000000000000000000000000000000000000000000000000000000000000000000000000                              
1040740300031A00000010400309 0008764920451 BENIVALDO DE JESUS SANTOS     000016             014012022BRL000000000000000000000000062698000000000   01N1140000000000000000000000000                                        00          0          
1040740300032B   100000020706502PRES HERMES DA FONSECA        00000               JD VITORIA II  ITAPOLIS            14900000SP14012022000000000000000000000000000000000000000000000000000000000000000000000000000                              
1040740300033A00000010400309 0007935223298 BRUNA EDUARDA PANAGASSI       000017             014012022BRL000000000000000000000000062698000000000   01N1140000000000000000000000000                                        00          0          
1040740300034B   100049934944839JULIO ASCANIO MALLET          00000               CENTRO         ITAPOLIS            14900000SP14012022000000000000000000000000000000000000000000000000000000000000000000000000000                              
1040740300035A00000010400309 0009847302168 BRUNO HENRIQUE DO VALLE       000018             014012022BRL000000000000000000000000078111000000000   01N1140000000000000000000000000                                        00          0          
1040740300036B   100041642689807CARLOS DAL ROVERE             00000               JOAO DE SILVEIRITAPOLIS            14900000SP14012022000000000000000000000000000000000000000000000000000000000000000000000000000                              
1040740300037A00000010400309 0009961648868 BRUNO RAFAEL DE AZEVEDO       000019             014012022BRL000000000000000000000000075062000000000   01N1140000000000000000000000000                                        00          0          
1040740300038B   100039623871880JAMAICA                       00000               JARDIM SAO BENEITAPOLIS            14900000SP14012022000000000000000000000000000000000000000000000000000000000000000000000000000                              
1040740300039A00000010400309 0008659503927 CEZAR AUGUSTO ALVES           000020             014012022BRL000000000000000000000000075061000000000   01N1140000000000000000000000000                                        00          0          
1040740300040B   100062314872371MERCURIO                      00000               JARDIM DO SOL  ITAPOLIS            14900000SP14012022000000000000000000000000000000000000000000000000000000000000000000000000000                              
1040740300041A00000010400309 0009871271021 CLAUDEMIR CERQUEIRA LEITE     000021             014012022BRL000000000000000000000000143706000000000   01N1140000000000000000000000000                                        00          0          
1040740300042B   100030814263836DR ARNALDO MARADEI            00000               JARDIM REDENCAOITAPOLIS            14900000SP14012022000000000000000000000000000000000000000000000000000000000000000000000000000                              
1040740300043A00000010400309 0009704068056 CLAUDEMIR DAS VIRGEM GARCIA   000022             014012022BRL000000000000000000000000075061000000000   01N1140000000000000000000000000                                        00          0          
1040740300044B   100002816478955JOSE GARIERI                  00000               JD VENEZA      ITAPOLIS            14900000SP14012022000000000000000000000000000000000000000000000000000000000000000000000000000                              
1040740300045A00000010400309 0009848497221 CLEONICE CARDOSO DOS SANTOS   000023             014012022BRL000000000000000000000000075062000000000   01N1140000000000000000000000000                                        00          0          
1040740300046B   100020062629808CHILE                         00000               JD S BENEDITO  ITAPOLIS            14900000SP14012022000000000000000000000000000000000000000000000000000000000000000000000000000                              
1040740300047A00000010400309 0009959237686 CRISTIANO CARLOS TEIXEIRA DOS 000024             014012022BRL000000000000000000000000078113000000000   01N1140000000000000000000000000                                        00          0          
1040740300048B   100028308993850AZALEIAS                      00000               SAO FRANCISCO  ITAPOLIS            14900000SP14012022000000000000000000000000000000000000000000000000000000000000000000000000000                              
1040740300049A00000010400309 0009882062810 DALVANIO BEZERRA MELO         000025             014012022BRL000000000000000000000000085880000000000   01N1140000000000000000000000000                                        00          0          
1040740300050B   100013612001469DO CAFE                       00000               JARDIM SANTO ANITAPOLIS            14900000SP14012022000000000000000000000000000000000000000000000000000000000000000000000000000                              
1040740300051A00000010400309 0007935217816 DANIEL DOS SANTOS SILVA       000026             014012022BRL000000000000000000000000075061000000000   01N1140000000000000000000000000                                        00          0          
1040740300052B   100070548624143JOSE FORTUNA                  00000               CAMPESTRE      ITAPOLIS            14900000SP14012022000000000000000000000000000000000000000000000000000000000000000000000000000                              
1040740300053A00000010400309 0009847302141 DANILO SANTANA NASCIMENTO     000027             014012022BRL000000000000000000000000119971000000000   01N1140000000000000000000000000                                        00          0          
1040740300054B   100006342137501JOAO MONGUINI                 00000               TAPINAS        ITAPOLIS            14900000SP14012022000000000000000000000000000000000000000000000000000000000000000000000000000                              
1040740300055A00000010400309 0009865097724 DELVAIR FERREIRA              000028             014012022BRL000000000000000000000000075062000000000   01N1140000000000000000000000000                                        00          0          
1040740300056B   100007731431819JACOMO SEMENSATO              00000               JARDIM ALVORADAITAPOLIS            14900000SP14012022000000000000000000000000000000000000000000000000000000000000000000000000000                              
1040740300057A00000010400309 0009882337720 DENILDO BEZERRA DE OLIVEIRA   000029             014012022BRL000000000000000000000000113822000000000   01N1140000000000000000000000000                                        00          0          
1040740300058B   100003355681490VICENTE GRANUCCI              00000               BELA VISTA     ITAPOLIS            14900000SP14012022000000000000000000000000000000000000000000000000000000000000000000000000000                              
1040740300059A00000010400309 0009867157953 DENIS ALEXANDRE DOS SANTOS FER000030             014012022BRL000000000000000000000000085879000000000   01N1140000000000000000000000000                                        00          0          
1040740300060B   100040181973812JAMAICA                       00000               JD SAO BENEDITOITAPOLIS            14900000SP14012022000000000000000000000000000000000000000000000000000000000000000000000000000                              
1040740300061A00000010400309 0009200344432 DOLORES APARECIDA DA SILVA    000031             014012022BRL000000000000000000000000062700000000000   01N1140000000000000000000000000                                        00          0          
1040740300062B   100006619246885ARACAJU                       00000               NOVA REDENCAO  ITAPOLIS            14900000SP14012022000000000000000000000000000000000000000000000000000000000000000000000000000                              
1040740300063A00000010400309 0009068201048 ERIVALDO ALVES DA SILVA SANTOS000032             014012022BRL000000000000000000000000067754000000000   01N1140000000000000000000000000                                        00          0          
1040740300064B   100011321391471SALVADO                       00000               JD NOVA REDENCAITAPOLIS            14900000SP14012022000000000000000000000000000000000000000000000000000000000000000000000000000                              
1040740300065A00000010400309 0009866842636 EZIQUIEL DE PAULA             000033             014012022BRL000000000000000000000000081779000000000   01N1140000000000000000000000000                                        00          0          
1040740300066B   100028382795803ANTONIO DAL ROVERE            00000               SILVEIRA       ITAPOLIS            14900000SP14012022000000000000000000000000000000000000000000000000000000000000000000000000000                              
1040740300067A00000010400309 0007935241377 FABIO DIONISIO DE OLIVEIRA    000034             014012022BRL000000000000000000000000075061000000000   01N1140000000000000000000000000                                        00          0          
1040740300068B   100028779612814JAMAICA                       00000               SAO BENEDITO   ITAPOLIS            14900000SP14012022000000000000000000000000000000000000000000000000000000000000000000000000000                              
1040740300069A00000010400309 0008660225730 FABIO LEITE DE MORAES         000035             014012022BRL000000000000000000000000114039000000000   01N1140000000000000000000000000                                        00          0          
1040740300070B   100028141915860VICENTE GRANUCCI              00000               JARDIM BOA VISTITAPOLIS            14900000SP14012022000000000000000000000000000000000000000000000000000000000000000000000000000                              
1040740300071A00000010400309 0009847482840 FRANCISCO CARDOSO DE MACEDO   000036             014012022BRL000000000000000000000000078111000000000   01N1140000000000000000000000000                                        00          0          
1040740300072B   100000745575307TERESINA                      00000               JARDIM NOVA REDITAPOLIS            14900000SP14012022000000000000000000000000000000000000000000000000000000000000000000000000000                              
1040740300073A00000010400309 0009374254072 GILDVANIO DA CRUZ MORAES      000037             014012022BRL000000000000000000000000075061000000000   01N1140000000000000000000000000                                        00          0          
1040740300074B   100013699364437JULIO ASCANEO MALET           00000               CENTRO         ITAPOLIS            14900000SP14012022000000000000000000000000000000000000000000000000000000000000000000000000000                              
1040740300075A00000010400309 0009955299938 GILMAR ALVES DA SILVA         000038             014012022BRL000000000000000000000000078111000000000   01N1140000000000000000000000000                                        00          0          
1040740300076B   100030802309810ALDO VINHOLLI                 00000               TAPINAS        ITAPOLIS            14900000SP14012022000000000000000000000000000000000000000000000000000000000000000000000000000                              
1040740300077A00000010400309 0007476296258 GILMAR DE SOUZA               000039             014012022BRL000000000000000000000000075062000000000   01N1140000000000000000000000000                                        00          0          
1040740300078B   100035348662828DR ARNALDO MARADEI            00000               JD REDENCAO    ITAPOLIS            14900000SP14012022000000000000000000000000000000000000000000000000000000000000000000000000000                              
1040740300079A00000010400309 0009837701876 GILMAR SANTOS DA SILVA        000040             014012022BRL000000000000000000000000078111000000000   01N1140000000000000000000000000                                        00          0          
1040740300080B   100012542625476ODILON NEGRAO                 00000               CENTRO         ITAPOLIS            14900000SP14012022000000000000000000000000000000000000000000000000000000000000000000000000000                              
1040740300081A00000010400309 0009956870787 GIVANILDO FRANCISCO DE CAMPOS 000041             014012022BRL000000000000000000000000093756000000000   01N1140000000000000000000000000                                        00          0          
1040740300082B   100029752668801VENUS                         00000               JARDIM DO SOL  ITAPOLIS            14900000SP14012022000000000000000000000000000000000000000000000000000000000000000000000000000                              
1040740300083A00000010400309 0009849944035 GUSTAVO DA SILVA MOURA        000042             014012022BRL000000000000000000000000078111000000000   01N1140000000000000000000000000                                        00          0          
1040740300084B   100040239312848VENUS                         00000               JARDIM DO SOL  ITAPOLIS            14900000SP14012022000000000000000000000000000000000000000000000000000000000000000000000000000                              
1040740300085A00000010400309 0009868905716 IGOR AUGUSTO BOSCO            000043             014012022BRL000000000000000000000000075062000000000   01N1140000000000000000000000000                                        00          0          
1040740300086B   100043302275846ANTONIO VESSONI               00000               CENTRO         ITAPOLIS            14900000SP14012022000000000000000000000000000000000000000000000000000000000000000000000000000                              
1040740300087A00000010400309 0009955299849 ISAEL MARQUES DA CRUZ         000044             014012022BRL000000000000000000000000081780000000000   01N1140000000000000000000000000                                        00          0          
1040740300088B   100040286202875JOAO NERY                     00000               JARDIM ALVORADAITAPOLIS            14900000SP14012022000000000000000000000000000000000000000000000000000000000000000000000000000                              
1040740300089A00000010400309 0008425892250 IVAN CARDOSO DA SILVA         000045             014012022BRL000000000000000000000000075062000000000   01N1140000000000000000000000000                                        00          0          
1040740300090B   100004791496400PRES WENCESLAU BRAS           00000               JD VITORIA     ITAPOLIS            14900000SP14012022000000000000000000000000000000000000000000000000000000000000000000000000000                              
1040740300091A00000010400309 0008630980042 IVAN OTAVIO GALDINO           000046             014012022BRL000000000000000000000000078111000000000   01N1140000000000000000000000000                                        00          0          
1040740300092B   100045431626841JOAO VIGNOLLI                 00000               TAPINAS        ITAPOLIS            14900000SP14012022000000000000000000000000000000000000000000000000000000000000000000000000000                              
1040740300093A00000010400309 0009874001955 JEAN DA SILVA IGNACIO         000047             014012022BRL000000000000000000000000075061000000000   01N1140000000000000000000000000                                        00          0          
1040740300094B   100042630902846ARACAJU                       00000               JD REDENCAO    ITAPOLIS            14900000SP14012022000000000000000000000000000000000000000000000000000000000000000000000000000                              
1040740300095A00000010400309 0007961738380 JEDSON DOS SANTOS LIMA        000048             014012022BRL000000000000000000000000075062000000000   01N1140000000000000000000000000                                        00          0          
1040740300096B   100086055105527ESMERALDA                     00000               DOIS MIL       ITAPOLIS            14900000SP14012022000000000000000000000000000000000000000000000000000000000000000000000000000                              
1040740300097A00000010400309 0008764900981 JHONATAN HENRIQUE DOS SANTOS F000049             014012022BRL000000000000000000000000062698000000000   01N1140000000000000000000000000                                        00          0          
1040740300098B   100043468548850BARAO DO RIO BRANCO           00000               CENTRO         ITAPOLIS            14900000SP14012022000000000000000000000000000000000000000000000000000000000000000000000000000                              
1040740300099A00000010400309 0009960835664 JOAO FAUSTINO BARROS JUNIOR   000050             014012022BRL000000000000000000000000078111000000000   01N1140000000000000000000000000                                        00          0          
1040740300100B   100034300129886DR ARNALDO MARADEI            00000               JD REDENCAO    ITAPOLIS            14900000SP14012022000000000000000000000000000000000000000000000000000000000000000000000000000                              
1040740300101A00000010400309 0009848663911 JOAO PAULO SOARES COSTA RIBEIR000051             014012022BRL000000000000000000000000075062000000000   01N1140000000000000000000000000                                        00          0          
1040740300102B   100009082073447GERSON ANTONIO SGARBI         00000               JD SAO LUCAS   ITAPOLIS            14900000SP14012022000000000000000000000000000000000000000000000000000000000000000000000000000                              
1040740300103A00000010400309 0009700842113 JOILTON VIEIRA COSTA SANTOS   000052             014012022BRL000000000000000000000000075061000000000   01N1140000000000000000000000000                                        00          0          
1040740300104B   100007934429584DA LUA                        00000               DO SOL         ITAPOLIS            14900000SP14012022000000000000000000000000000000000000000000000000000000000000000000000000000                              
1040740300105A00000010400309 0009955299890 JONAS MEDEIROS DA SILVA FILHO 000053             014012022BRL000000000000000000000000081779000000000   01N1140000000000000000000000000                                        00          0          
1040740300106B   100015083937883MERCURIO                      00000               JARDIM DO SOL  ITAPOLIS            14900000SP14012022000000000000000000000000000000000000000000000000000000000000000000000000000                              
1040740300107A00000010400309 0009957654786 JOSE AMARO PEREIRA FILHO      000054             014012022BRL000000000000000000000000067754000000000   01N1140000000000000000000000000                                        00          0          
1040740300108B   100004569775896PERO NETO                     00000               CENTRO         ITAPOLIS            14900000SP14012022000000000000000000000000000000000000000000000000000000000000000000000000000                              
1040740300109A00000010400309 0009957654654 JOSE APARECIDO NERIS DA SILVA 000055             014012022BRL000000000000000000000000098720000000000   01N1140000000000000000000000000                                        00          0          
1040740300110B   100009422400490FREI PAULO LUIG               00000               CENTRO         ITAPOLIS            14900000SP14012022000000000000000000000000000000000000000000000000000000000000000000000000000                              
1040740300111A00000010400309 0009956870850 JOSE CARLOS GALDINO           000056             014012022BRL000000000000000000000000085880000000000   01N1140000000000000000000000000                                        00          0          
1040740300112B   100001642768901ALBINO VICENTAINER            00000               TAPINAS        ITAPOLIS            14900000SP14012022000000000000000000000000000000000000000000000000000000000000000000000000000                              
1040740300113A00000010400309 0009966041198 JOSE CLECIO AUGUSTO DE AZEVEDO000057             014012022BRL000000000000000000000000085879000000000   01N1140000000000000000000000000                                        00          0          
1040740300114B   100009868444462JOSE BELARMINIO               00000               SANTO ANTONIO  ITAPOLIS            14900000SP14012022000000000000000000000000000000000000000000000000000000000000000000000000000                              
1040740300115A00000010400309 0009125662142 JOSE ELCIO VIEIRA GADI        000058             014012022BRL000000000000000000000000075061000000000   01N1140000000000000000000000000                                        00          0          
1040740300116B   100008680615498SALVADOR                      00000               NOVA REDENCAO  ITAPOLIS            14900000SP14012022000000000000000000000000000000000000000000000000000000000000000000000000000                              
1040740300117A00000010400309 0009847082168 JOSE FABIANO VILASBOAS        000059             014012022BRL000000000000000000000000078111000000000   01N1140000000000000000000000000                                        00          0          
1040740300118B   100033250252859ANSELMO CASTELLI              00000               ALVORADA       ITAPOLIS            14900000SP14012022000000000000000000000000000000000000000000000000000000000000000000000000000                              
1040740300119A00000010400309 0009870239345 JOSE PAULO DA SILVA           000060             014012022BRL000000000000000000000000075062000000000   01N1140000000000000000000000000                                        00          0          
1040740300120B   100095429280259JOAO PESSOA                   00000               JD NOVA REDENCAITAPOLIS            14900000SP14012022000000000000000000000000000000000000000000000000000000000000000000000000000                              
1040740300121A00000010400309 0009846127370 JOSE SIDICLEI QUINTINO SANTANA000061             014012022BRL000000000000000000000000078111000000000   01N1140000000000000000000000000                                        00          0          
1040740300122B   100004552707400LUZIA TONANI GENTIL           00000               RES NOVO ORIENTITAPOLIS            14900000SP14012022000000000000000000000000000000000000000000000000000000000000000000000000000                              
1040740300123A00000010400309 0009956870779 JOSEALES OLIVEIRA LIMA        000062             014012022BRL000000000000000000000000089655000000000   01N1140000000000000000000000000                                        00          0          
1040740300124B   100000794489508CITRINO                       00000               JD DOIS MIL    ITAPOLIS            14900000SP14012022000000000000000000000000000000000000000000000000000000000000000000000000000                              
1040740300125A00000010400309 0009732792723 JOSEILTON SIQUEIRA DA SILVA   000063             014012022BRL000000000000000000000000078111000000000   01N1140000000000000000000000000                                        00          0          
1040740300126B   100070707916402ORESTE DA COSTA SENE JR       00000               JARDIM REDENCAOITAPOLIS            14900000SP14012022000000000000000000000000000000000000000000000000000000000000000000000000000                              
1040740300127A00000010400309 0008280673294 JULIANE CRISTINA FARIAS DA SIL000064             014012022BRL000000000000000000000000062698000000000   01N1140000000000000000000000000                                        00          0          
1040740300128B   100039320047871ESMERALDA                     00000               DOIS MIL       ITAPOLIS            14900000SP14012022000000000000000000000000000000000000000000000000000000000000000000000000000                              
1040740300129A00000010400309 0009956870825 JUNIOR NELSON MASSONI         000065             014012022BRL000000000000000000000000093755000000000   01N1140000000000000000000000000                                        00          0          
1040740300130B   100004507205867ANTONIO COMPAGNO              00000               CENTRO         ITAPOLIS            14900000SP14012022000000000000000000000000000000000000000000000000000000000000000000000000000                              
1040740300131A00000010400309 0009136976640 LAILSON VIEIRA COSTA SANTOS   000066             014012022BRL000000000000000000000000062698000000000   01N1140000000000000000000000000                                        00          0          
1040740300132B   100007965223597JOSE TREVISAN                 00000               CENTOS         ITAPOLIS            14900000SP14012022000000000000000000000000000000000000000000000000000000000000000000000000000                              
1040740300133A00000010400309 0008657895747 LEANDRO MARCONDES CABRAL      000067             014012022BRL000000000000000000000000075062000000000   01N1140000000000000000000000000                                        00          0          
1040740300134B   100045757915803JOSE DE BARROS RIBEIRO        00000               CENTRO         ITAPOLIS            14900000SP14012022000000000000000000000000000000000000000000000000000000000000000000000000000                              
1040740300135A00000010400309 0007497076559 LEONARDO BATISTA PEREIRA FILHO000068             014012022BRL000000000000000000000000075061000000000   01N1140000000000000000000000000                                        00          0          
1040740300136B   100039643422895JULIO ASCANIO MALLET          00000               CENTRO         ITAPOLIS            14900000SP14012022000000000000000000000000000000000000000000000000000000000000000000000000000                              
1040740300137A00000010400309 0007626208758 LEONARDO VINICIUS PRIMILA     000069             014012022BRL000000000000000000000000075061000000000   01N1140000000000000000000000000                                        00          0          
1040740300138B   100050505170876ARMANDO RONDELLI              00000               DONA BELLA     ITAPOLIS            14900000SP14012022000000000000000000000000000000000000000000000000000000000000000000000000000                              
1040740300139A00000010400309 0009960032332 LUIZ CARLOS DA SILVA          000070             014012022BRL000000000000000000000000081780000000000   01N1140000000000000000000000000                                        00          0          
1040740300140B   100001491629444MONJOLINHO                    00000               JARDIM ESTORIL ITAPOLIS            14900000SP14012022000000000000000000000000000000000000000000000000000000000000000000000000000                              
1040740300141A00000010400309 0009955299873 MADALENA GONCALVES PRESOTTO   000071             014012022BRL000000000000000000000000089655000000000   01N1140000000000000000000000000                                        00          0          
1040740300142B   100031832159850AGUA MARINHA                  00000               JARDIM DOIS MILITAPOLIS            14900000SP14012022000000000000000000000000000000000000000000000000000000000000000000000000000                              
1040740300143A00000010400309 0009958444890 MANOEL MESSIAS ALVES          000072             014012022BRL000000000000000000000000089655000000000   01N1140000000000000000000000000                                        00          0          
1040740300144B   100008609965490ODILON NEGRAO                 00000               CENTRO         ITAPOLIS            14900000SP14012022000000000000000000000000000000000000000000000000000000000000000000000000000                              
1040740300145A00000010400309 0009838518196 MARCELO DOS SANTOS            000073             014012022BRL000000000000000000000000075062000000000   01N1140000000000000000000000000                                        00          0          
1040740300146B   100016717936843JOSE ROMANINI                 00000               JARDIM DONA BELITAPOLIS            14900000SP14012022000000000000000000000000000000000000000000000000000000000000000000000000000                              
1040740300147A00000010400309 0009848648548 MARCELO HENRIQUE DOS SANTOS   000074             014012022BRL000000000000000000000000078111000000000   01N1140000000000000000000000000                                        00          0          
1040740300148B   100011832695441MERCURIO                      00000               JARDIM DO SOL  ITAPOLIS            14900000SP14012022000000000000000000000000000000000000000000000000000000000000000000000000000                              
1040740300149A00000010400309 0009848497175 MARCIO JOSE MARQUES           000075             014012022BRL000000000000000000000000075062000000000   01N1140000000000000000000000000                                        00          0          
1040740300150B   100035222937895JOSE DE BARROS RIBEIRO        00000               PORTUGAL       ITAPOLIS            14900000SP14012022000000000000000000000000000000000000000000000000000000000000000000000000000                              
1040740300151A00000010400309 0009746023778 MARCIO PEREIRA DE SENE        000076             014012022BRL000000000000000000000000075062000000000   01N1140000000000000000000000000                                        00          0          
1040740300152B   100028656667866GERALDO ARRUDA LEMOS          00000               JD REDENCAO    ITAPOLIS            14900000SP14012022000000000000000000000000000000000000000000000000000000000000000000000000000                              
1040740300153A00000010400309 0009837702244 MARCONDES DA SILVA PEREIRA    000077             014012022BRL000000000000000000000000078111000000000   01N1140000000000000000000000000                                        00          0          
1040740300154B   100009586361411ANTONIO COMPAGNO              00000               CENTRO         ITAPOLIS            14900000SP14012022000000000000000000000000000000000000000000000000000000000000000000000000000                              
1040740300155A00000010400309 0009960835656 MARCOS JESUS RODRIGUES        000078             014012022BRL000000000000000000000000107672000000000   01N1140000000000000000000000000                                        00          0          
1040740300156B   100039421982827VALDIR APARECIDO DUNE         00000               TAPINAS        ITAPOLIS            14900000SP14012022000000000000000000000000000000000000000000000000000000000000000000000000000                              
1040740300157A00000010400309 0009847302133 MARLON VINICIUS PEREIRA       000079             014012022BRL000000000000000000000000078111000000000   01N1140000000000000000000000000                                        00          0          
1040740300158B   100035849741860VALDECIR DE MARTIN            00000               RES G RENESTO  ITAPOLIS            14900000SP14012022000000000000000000000000000000000000000000000000000000000000000000000000000                              
1040740300159A00000010400309 0009954447526 MATHEUS GONCALVES DE LIMA     000080             014012022BRL000000000000000000000000077190000000000   01N1140000000000000000000000000                                        00          0          
1040740300160B   100046458655878ALAMEDA LIMA                  00000               PORTAL DAS LARAITAPOLIS            14900000SP14012022000000000000000000000000000000000000000000000000000000000000000000000000000                              
1040740300161A00000010400309 0008763484674 MOISES GERALDO NERIS DA SILVA 000081             014012022BRL000000000000000000000000075062000000000   01N1140000000000000000000000000                                        00          0          
1040740300162B   100070358602408FREI PAULO LUIG               00000               CENTRO         ITAPOLIS            14900000SP14012022000000000000000000000000000000000000000000000000000000000000000000000000000                              
1040740300163A00000010400309 0009848497167 NATANAEL EMILIANO DA SILVA    000082             014012022BRL000000000000000000000000078111000000000   01N1140000000000000000000000000                                        00          0          
1040740300164B   100012168272492ALBERICE PAIOLA               00000               JARDIM SAO LUCAITAPOLIS            14900000SP14012022000000000000000000000000000000000000000000000000000000000000000000000000000                              
1040740300165A00000010400309 0007872279011 PAULO ADEMIR DOS SANTOS       000083             014012022BRL000000000000000000000000075061000000000   01N1140000000000000000000000000                                        00          0          
1040740300166B   100045011626865LEOPOLDO HARAVECHIA           00000               TAPINAS        ITAPOLIS            14900000SP14012022000000000000000000000000000000000000000000000000000000000000000000000000000                              
1040740300167A00000010400309 0007502888455 PAULO CESAR DE SENA FORTUNATO 000084             014012022BRL000000000000000000000000103976000000000   01N1140000000000000000000000000                                        00          0          
1040740300168B   100041171219873IRMAOS CERAICO                00000               VENEZA         ITAPOLIS            14900000SP14012022000000000000000000000000000000000000000000000000000000000000000000000000000                              
1040740300169A00000010400309 0008279178765 PEDRO GONCALVES PRATA         000085             014012022BRL000000000000000000000000062698000000000   01N1140000000000000000000000000                                        00          0          
1040740300170B   100040829786821PROF SALVADOR MANGINI         00000               RES VILLAGE    ITAPOLIS            14900000SP14012022000000000000000000000000000000000000000000000000000000000000000000000000000                              
1040740300171A00000010400309 0009961648795 REGINALDO CARDOZO DA SILVA    000086             014012022BRL000000000000000000000000081779000000000   01N1140000000000000000000000000                                        00          0          
1040740300172B   100030684511835HEMATITA                      00000               JARDIM DOIS MILITAPOLIS            14900000SP14012022000000000000000000000000000000000000000000000000000000000000000000000000000                              
1040740300173A00000010400309 0009838518188 REGINALDO RABACHIM            000087             014012022BRL000000000000000000000000075062000000000   01N1140000000000000000000000000                                        00          0          
1040740300174B   100029879497821LEITEIRO                      00000               JD ESTORIL     ITAPOLIS            14900000SP14012022000000000000000000000000000000000000000000000000000000000000000000000000000                              
1040740300175A00000010400309 0009960032294 ROGERIO DA SILVA              000088             014012022BRL000000000000000000000000081779000000000   01N1140000000000000000000000000                                        00          0          
1040740300176B   100039623086873PORTUGAL                      00000               JD SAO BENEDITOITAPOLIS            14900000SP14012022000000000000000000000000000000000000000000000000000000000000000000000000000                              
1040740300177A00000010400309 0008762078290 ROGERIO DOS SANTOS AUGUSTO    000089             014012022BRL000000000000000000000000075062000000000   01N1140000000000000000000000000                                        00          0          
1040740300178B   100035776543843ALDIR MILTON CHIQUETTI        00000               S LUCAS        ITAPOLIS            14900000SP14012022000000000000000000000000000000000000000000000000000000000000000000000000000                              
1040740300179A00000010400309 0009956870744 ROGERIO OLIVEIRA DE LIMA      000090             014012022BRL000000000000000000000000085879000000000   01N1140000000000000000000000000                                        00          0          
1040740300180B   100007796336446RODRIGUES ALVES               00000               CENTRO         ITAPOLIS            14900000SP14012022000000000000000000000000000000000000000000000000000000000000000000000000000                              
1040740300181A00000010400309 0009874198040 ROSENILDO DA SILVA SANTOS     000091             014012022BRL000000000000000000000000085880000000000   01N1140000000000000000000000000                                        00          0          
1040740300182B   100007470504494TERESINA                      00000               NOVA REDENCAO  ITAPOLIS            14900000SP14012022000000000000000000000000000000000000000000000000000000000000000000000000000                              
1040740300183A00000010400309 0009865797556 SARINE CRISTINA FREIRE DA SILV000092             014012022BRL000000000000000000000000066978000000000   01N1140000000000000000000000000                                        00          0          
1040740300184B   100034863830866FAMILIA MIARELLI              00000               RESID SANTA ROSITAPOLIS            14900000SP14012022000000000000000000000000000000000000000000000000000000000000000000000000000                              
1040740300185A00000010400309 0009938006898 SERGIO LUIS BOSCO             000093             014012022BRL000000000000000000000000085880000000000   01N1140000000000000000000000000                                        00          0          
1040740300186B   100016393060808RICIERI ANTONIO VESSONI       00000               CENTRO         ITAPOLIS            14900000SP14012022000000000000000000000000000000000000000000000000000000000000000000000000000                              
1040740300187A00000010400309 0009957654689 SILVERIO DA SILVA PEREIRA     000094             014012022BRL000000000000000000000000113822000000000   01N1140000000000000000000000000                                        00          0          
1040740300188B   100007439103467VENEZUELA                     00000               JD SAO BENEDITOITAPOLIS            14900000SP14012022000000000000000000000000000000000000000000000000000000000000000000000000000                              
1040740300189A00000010400309 0009956084757 SIRLENE CRISTINA SANT ANA     000095             014012022BRL000000000000000000000000098720000000000   01N1140000000000000000000000000                                        00          0          
1040740300190B   100019949050855DO CAFE                       00000               SANTO ANTONIO  ITAPOLIS            14900000SP14012022000000000000000000000000000000000000000000000000000000000000000000000000000                              
1040740300191A00000010400309 0007932774854 THIAGO HENRIQUE FRANCOSO      000096             014012022BRL000000000000000000000000075061000000000   01N1140000000000000000000000000                                        00          0          
1040740300192B   100049716474814RAUL SEBASTIAO MARTELLI       00000               ITAUERA II     ITAPOLIS            14900000SP14012022000000000000000000000000000000000000000000000000000000000000000000000000000                              
1040740300193A00000010400309 0009956870868 TIAGO RIBEIRO PALAGANO        000097             014012022BRL000000000000000000000000190335000000000   01N1140000000000000000000000000                                        00          0          
1040740300194B   100032914177801LUCINDO PRUDENTE DA COST  FUN 00000               JD PORTUGAL    ITAPOLIS            14900000SP14012022000000000000000000000000000000000000000000000000000000000000000000000000000                              
1040740300195A00000010400309 0009957654735 VALDEMIR ROGERIO JAVAROTTI    000098             014012022BRL000000000000000000000000108966000000000   01N1140000000000000000000000000                                        00          0          
1040740300196B   100025802854820CARMELIA LAND MERCALDI        00000               JARDIM DONA BELITAPOLIS            14900000SP14012022000000000000000000000000000000000000000000000000000000000000000000000000000                              
1040740300197A00000010400309 0009137709858 VALDINEI DOS SANTOS           000099             014012022BRL000000000000000000000000103977000000000   01N1140000000000000000000000000                                        00          0          
1040740300198B   100007562134952TERESINA                      00000               NOVA REDENCAO  ITAPOLIS            14900000SP14012022000000000000000000000000000000000000000000000000000000000000000000000000000                              
1040740300199A00000010400309 0009888306028 VANDERLEI DE SOUZA DE MELLO   000100             014012022BRL000000000000000000000000081779000000000   01N1140000000000000000000000000                                        00          0          
1040740300200B   100002748060962VALDECIR BAITZ                00000               JARDIM SAO LUCAITAPOLIS            14900000SP14012022000000000000000000000000000000000000000000000000000000000000000000000000000                              
1040740300201A00000010400309 0009601035481 VICTOR MATHEUS BENEDITO       000101             014012022BRL000000000000000000000000075061000000000   01N1140000000000000000000000000                                        00          0          
1040740300202B   100045989503822THOMAZ MERCALDI               00000               DONA BELLA     ITAPOLIS            14900000SP14012022000000000000000000000000000000000000000000000000000000000000000000000000000                              
1040740300203A00000010400309 0007581138616 WESLEY GOMES DE OLIVEIRA      000102             014012022BRL000000000000000000000000075061000000000   01N1140000000000000000000000000                                        00          0          
1040740300204B   100048087472861VALDECIR BAITZ                00000               JD SAO LUCAS   ITAPOLIS            14900000SP14012022000000000000000000000000000000000000000000000000000000000000000000000000000                              
1040740300205A00000010400309 0009847082079 WEUDES ELIAS DOS SANTOS       000103             014012022BRL000000000000000000000000075062000000000   01N1140000000000000000000000000                                        00          0          
1040740300206B   100010392876469LEITEIRO                      00000               JARDIM ESTORIL ITAPOLIS            14900000SP14012022000000000000000000000000000000000000000000000000000000000000000000000000000                              
1040740300207A00000010400330 0007626248083 ALAN CRISTIAN DA SILVA DIAS   000104             014012022BRL000000000000000000000000062698000000000   01N1140000000000000000000000000                                        00          0          
1040740300208B   100042646438800ANTONIO FERNANDES             00000               RESIDENCIAL E CPINDAMONHANGABA     12423449SP14012022000000000000000000000000000000000000000000000000000000000000000000000000000                              
1040740300209A00000010400330 0009867419044 CLAUDOMIRO CORREA             000105             014012022BRL000000000000000000000000075062000000000   01N1140000000000000000000000000                                        00          0          
1040740300210B   100019921046896JOSE MARIA OLIVEIRA           00000               FEITAL         PINDAMONHANGABA     12442240SP14012022000000000000000000000000000000000000000000000000000000000000000000000000000                              
1040740300211A00000010400330 0009911673451 CLEBER MONTEIRO ESTEVAO       000106             014012022BRL000000000000000000000000062698000000000   01N1140000000000000000000000000                                        00          0          
1040740300212B   100040927829851BOA VISTA                     00000               CONJUNTO HABITAPINDAMONHANGABA     12444310SP14012022000000000000000000000000000000000000000000000000000000000000000000000000000                              
1040740300213A00000010400511 0009876133492 WILIAN KARAS LEITE            000107             014012022BRL000000000000000000000000079916000000000   01N1140000000000000000000000000                                        00          0          
1040740300214B   100002970510081VICTALINO ZANUSSI             00000               BOA VISTA      SAO LEOPOLDO        93150000RS14012022000000000000000000000000000000000000000000000000000000000000000000000000000                              
1040740300215A00000010400811 0009955177034 CHARLES AUGUSTO DA ROCHA CAMPO000108             014012022BRL000000000000000000000000078504000000000   01N1140000000000000000000000000                                        00          0          
1040740300216B   10000609173677917                            00000               ITAVILLE       ITABORAI            24800000RJ14012022000000000000000000000000000000000000000000000000000000000000000000000000000                              
1040740300217A00000010400811 0009874698123 DARCILEI ANTUNES DA COSTA     000109             014012022BRL000000000000000000000000098852000000000   01N1140000000000000000000000000                                        00          0          
1040740300218B   100006959897742HILDA ARAUJO                  00000               NOVA CIDADE    ITABORAI            24804156RJ14012022000000000000000000000000000000000000000000000000000000000000000000000000000                              
1040740300219A00000010400969 0009959073730 ADEVAIR APARECIDO BERGAMO     000110             014012022BRL000000000000000000000000107195000000000   01N1140000000000000000000000000                                        00          0          
1040740300220B   100003485321990PIRATININGA                   00000               JARDIM ESPLANADMANDAGUARI          86975000PR14012022000000000000000000000000000000000000000000000000000000000000000000000000000                              
1040740300221A00000010400969 0009958275967 ADRIANO ALMEIDA DE PAULA      000111             014012022BRL000000000000000000000000109786000000000   01N1140000000000000000000000000                                        00          0          
1040740300222B   100002217746960VICENTE RIBEIRO CHAGAS        00000               JARDIM BOA VISTMANDAGUARI          86975000PR14012022000000000000000000000000000000000000000000000000000000000000000000000000000                              
1040740300223A00000010400969 0009958275959 ADRIANO APARECIDO DE OLIVEIRA 000112             014012022BRL000000000000000000000000077234000000000   01N1140000000000000000000000000                                        00          0          
1040740300224B   100002937722903JACOB E STADLER               00000               JARDIM BOA VISTMANDAGUARI          86975000PR14012022000000000000000000000000000000000000000000000000000000000000000000000000000                              
1040740300225A00000010400969 0009957490171 ADRIANO DOS SANTOS SILVA      000113             014012022BRL000000000000000000000000129277000000000   01N1140000000000000000000000000                                        00          0          
1040740300226B   100004842249994AMELHIA SOAREZ CALDEIRA       00000               VILA VITORIA   MANDAGUARI          86975000PR14012022000000000000000000000000000000000000000000000000000000000000000000000000000                              
1040740300227A00000010400969 0009957490147 ADRIANO VALERIO SANCHES       000114             014012022BRL000000000000000000000000135460000000000   01N1140000000000000000000000000                                        00          0          
1040740300228B   100000630440999TRAVESSA PARANAPANEMA         00000               CENTRO         MANDAGUARI          86975000PR14012022000000000000000000000000000000000000000000000000000000000000000000000000000                              
1040740300229A00000010400969 0009959864214 ALESSANDRA KARLA DA SILVA     000115             014012022BRL000000000000000000000000084890000000000   01N1140000000000000000000000000                                        00          0          
1040740300230B   100007426650979JOAO MANHOLER                 00000               JD PROGRESSO 2 MANDAGUARI          86975000PR14012022000000000000000000000000000000000000000000000000000000000000000000000000000                              
1040740300231A00000010400969 0009955133371 ALEX DA SILVA LEMES           000116             014012022BRL000000000000000000000000065480000000000   01N1140000000000000000000000000                                        00          0          
1040740300232B   100008720502974DOMINGOS PASCOAL NEGRO        00000               VILA VITORIA   MANDAGUARI          86975000PR14012022000000000000000000000000000000000000000000000000000000000000000000000000000                              
1040740300233A00000010400969 0009593508495 ALEX SANDRO DIOGO             000117             014012022BRL000000000000000000000000065480000000000   01N1140000000000000000000000000                                        00          0          
1040740300234B   100000868918989NOICAI MATSUMOTO              00000               IPACARAI       MANDAGUARI          86975000PR14012022000000000000000000000000000000000000000000000000000000000000000000000000000                              
1040740300235A00000010400969 0009959072628 ALEXANDRE ROSSETTO RIBEIRO    000118             014012022BRL000000000000000000000000212200000000000   01N1140000000000000000000000000                                        00          0          
1040740300236B   100006036934904PIONEIRO JOAQUIM JOSE DE ANDRA00000               JD SOCIAL      MANDAGUARI          86975000PR14012022000000000000000000000000000000000000000000000000000000000000000000000000000                              
1040740300237A00000010400969 0009962296442 ALEXSANDRO DE OLIVEIRA PARDIM 000119             014012022BRL000000000000000000000000097651000000000   01N1140000000000000000000000000                                        00          0          
1040740300238B   100007676555914OLIMPIO VALERIO               00000               JD PROGRESSO   MANDAGUARI          86975000PR14012022000000000000000000000000000000000000000000000000000000000000000000000000000                              
1040740300239A00000010400969 0009961479853 ALISSON NICACIO SERAFINI      000120             014012022BRL000000000000000000000000107195000000000   01N1140000000000000000000000000                                        00          0          
1040740300240B   100006611263900ALVARO MELEIRO                00000               JD HAVAI       MANDAGUARI          86975000PR14012022000000000000000000000000000000000000000000000000000000000000000000000000000                              
1040740300241A00000010400969 0009956703392 ALTAIR COSTA DOS REIS         000121             014012022BRL000000000000000000000000067048000000000   01N1140000000000000000000000000                                        00          0          
1040740300242B   100002008091996SEBASTIAO FERNANDES DE SOUZA  00000               JD BOAVISTA    MANDAGUARI          86975000PR14012022000000000000000000000000000000000000000000000000000000000000000000000000000                              
1040740300243A00000010400969 0009959071915 ANA CAROLINA DA SILVA ANANIAS 000122             014012022BRL000000000000000000000000102624000000000   01N1140000000000000000000000000                                        00          0          
1040740300244B   100007861619907RAMAO MORENO                  00000               MANDAGUARI 2   MANDAGUARI          86975000PR14012022000000000000000000000000000000000000000000000000000000000000000000000000000                              
1040740300245A00000010400969 0009959865784 ANA PAULA ROMAGNOLI           000123             014012022BRL000000000000000000000000167296000000000   01N1140000000000000000000000000                                        00          0          
1040740300246B   100001516584988LINS DE VASCONCELOS           00000               CENTRO         MANDAGUARI          86975000PR14012022000000000000000000000000000000000000000000000000000000000000000000000000000                              
1040740300247A00000010400969 0009959865768 ANDERSON APARECIDO GARIANI    000124             014012022BRL000000000000000000000000141961000000000   01N1140000000000000000000000000                                        00          0          
1040740300248B   100076533638904NATALINA S ROMAGOLE           00000               CONJ TANCREDO NMANDAGUARI          86975000PR14012022000000000000000000000000000000000000000000000000000000000000000000000000000                              
1040740300249A00000010400969 0009959865741 ANDERSON DE FREITAS           000125             014012022BRL000000000000000000000000148699000000000   01N1140000000000000000000000000                                        00          0          
1040740300250B   100006173433907MAXIMILIANO JOSE DE ANDRADE   00000               JD SAO MARCOS  MANDAGUARI          86975000PR14012022000000000000000000000000000000000000000000000000000000000000000000000000000                              
1040740300251A00000010400969 0009959865733 ANDERSON DE OLIVEIRA CID      000126             014012022BRL000000000000000000000000102307000000000   01N1140000000000000000000000000                                        00          0          
1040740300252B   100005234178960PIONEIRO JOAQUIM JOSE DE ANDRA00000               JARDIM SOCIAL  MANDAGUARI          86975000PR14012022000000000000000000000000000000000000000000000000000000000000000000000000000                              
1040740300253A00000010400969 0009959073675 ANDERSON LUIS RODRIGUES GARCIA000127             014012022BRL000000000000000000000000148775000000000   01N1140000000000000000000000000                                        00          0          
1040740300254B   100004925976931JORGE HAMESSE                 00000               VILA VITORIA   MANDAGUARI          86975000PR14012022000000000000000000000000000000000000000000000000000000000000000000000000000                              
1040740300255A00000010400969 0009961479349 ANDRE ALMEIDA DE PAULA        000128             014012022BRL000000000000000000000000097651000000000   01N1140000000000000000000000000                                        00          0          
1040740300256B   100081331037972PEDRO NAIRNE                  00000               JD PARANA      MANDAGUARI          86975000PR14012022000000000000000000000000000000000000000000000000000000000000000000000000000                              
1040740300257A00000010400969 0009955916597 ANDRE LUCIO COELHO DE FARIAS  000129             014012022BRL000000000000000000000000093212000000000   01N1140000000000000000000000000                                        00          0          
1040740300258B   100004772498923PRESIDENTE KENNEDY            00000               CENTRO         JANDAIA DO SUL      86900000PR14012022000000000000000000000000000000000000000000000000000000000000000000000000000                              
1040740300259A00000010400969 0009958275940 ANDRE ROGERIO BIGHI GARCIA    000130             014012022BRL000000000000000000000000107417000000000   01N1140000000000000000000000000                                        00          0          
1040740300260B   100003137576903ANTONIO CINESIO DA CRUZ       00000               VILA NOVA      MANDAGUARI          86975000PR14012022000000000000000000000000000000000000000000000000000000000000000000000000000                              
1040740300261A00000010400969 0009959072237 ANDREIA CRISTINA RODRIGUES DE 000131             014012022BRL000000000000000000000000080358000000000   01N1140000000000000000000000000                                        00          0          
1040740300262B   100005019892939MIGUEL GARCIA GOMES           00000               JD BOA VISTA   MANDAGUARI          86975000PR14012022000000000000000000000000000000000000000000000000000000000000000000000000000                              
1040740300263A00000010400969 0009957490120 ANGELA MARIA MARCOLINO DOS SAN000132             014012022BRL000000000000000000000000073566000000000   01N1140000000000000000000000000                                        00          0          
1040740300264B   100002976300917GUMERCINDO BORTOLANZA         00000               CENTRO         MANDAGUARI          86975000PR14012022000000000000000000000000000000000000000000000000000000000000000000000000000                              
1040740300265A00000010400969 0009848707170 ANTON KIELBLOCK               000133             014012022BRL000000000000000000000000065480000000000   01N1140000000000000000000000000                                        00          0          
1040740300266B   100010898896908ANTONIO MORENO                00000               POPULAR II     MANDAGUARI          86975000PR14012022000000000000000000000000000000000000000000000000000000000000000000000000000                              
1040740300267A00000010400969 0009956704852 ANTONIO DE OLIVEIRA FARIAS    000134             014012022BRL000000000000000000000000117848000000000   01N1140000000000000000000000000                                        00          0          
1040740300268B   100056669232934ABRAMO ROCCO                  00000               JD CRISTINA    MANDAGUARI          86975000PR14012022000000000000000000000000000000000000000000000000000000000000000000000000000                              
1040740300269A00000010400969 0009955917127 APARECIDA NOGUEIRA BRAVO      000135             014012022BRL000000000000000000000000339087000000000   01N1140000000000000000000000000                                        00          0          
1040740300270B   100000607104970QUADRA 15 11                  00000               POPULAR II     MANDAGUARI          86975000PR14012022000000000000000000000000000000000000000000000000000000000000000000000000000                              
1040740300271A00000010400969 0009955917119 APARECIDO DONISETE FERREIRA   000136             014012022BRL000000000000000000000000291274000000000   01N1140000000000000000000000000                                        00          0          
1040740300272B   100089607821904SEBASTIAO ALVES FERREIRA      00000               JD CRISTINA II MANDAGUARI          86975000PR14012022000000000000000000000000000000000000000000000000000000000000000000000000000                              
1040740300273A00000010400969 0009955917097 APARECIDO DONIZETE DA FONSECA 000137             014012022BRL000000000000000000000000123618000000000   01N1140000000000000000000000000                                        00          0          
1040740300274B   100071046356968MARIA DAS D M CAMPOS          00000               JARDIM CRISTINAMANDAGUARI          86975000PR14012022000000000000000000000000000000000000000000000000000000000000000000000000000                              
1040740300275A00000010400969 0009955134297 ARI DE MATOS CORSINO          000138             014012022BRL000000000000000000000000097762000000000   01N1140000000000000000000000000                                        00          0          
1040740300276B   100056233582920LUAR DE PRATA                 00000               RESIDENCIAL    CAMBIRA             86890000PR14012022000000000000000000000000000000000000000000000000000000000000000000000000000                              
1040740300277A00000010400969 0009955134289 ARIAGNER MARTINS PORTELA      000139             014012022BRL000000000000000000000000192976000000000   01N1140000000000000000000000000                                        00          0          
1040740300278B   100002347711946PROJETADA A                   00000               JD OASIS       MANDAGUARI          86975000PR14012022000000000000000000000000000000000000000000000000000000000000000000000000000                              
1040740300279A00000010400969 0009955134270 ARLINDO FRANCISCO DA SILVA    000140             014012022BRL000000000000000000000000107194000000000   01N1140000000000000000000000000                                        00          0          
1040740300280B   100054685060920JORGE PIMENTA                 00000               JD PLANALTO    MANDAGUARI          86975000PR14012022000000000000000000000000000000000000000000000000000000000000000000000000000                              
1040740300281A00000010400969 0009955134262 BENIEL DE JESUS PASSOS        000141             014012022BRL000000000000000000000000098720000000000   01N1140000000000000000000000000                                        00          0          
1040740300282B   100008365402807DOS MANACAS                   00000               TERRA DOS IPES PINDAMONHANGABA     12443100SP14012022000000000000000000000000000000000000000000000000000000000000000000000000000                              
1040740300283A00000010400969 0009955915655 BRUNO DE ALMEIDA MARCOLINO    000142             014012022BRL000000000000000000000000107194000000000   01N1140000000000000000000000000                                        00          0          
1040740300284B   100008341119935ALICE DA SILVA FALCAO         00000               VILA VERDE     MANDAGUARI          86975000PR14012022000000000000000000000000000000000000000000000000000000000000000000000000000                              
1040740300285A00000010400969 0009959072741 CAMILA CINQUINI DA MATA GUIMAR000143             014012022BRL000000000000000000000000152384000000000   01N1140000000000000000000000000                                        00          0          
1040740300286B   100007087469932RUBI                          00000               JD AMERICA     JANDAIA DO SUL      86900000PR14012022000000000000000000000000000000000000000000000000000000000000000000000000000                              
1040740300287A00000010400969 0009955133240 CAMILA DA SILVA LEMES         000144             014012022BRL000000000000000000000000084890000000000   01N1140000000000000000000000000                                        00          0          
1040740300288B   100008742230918DOMINGOS PASCOAL NEGRO        00000               VILA VITORIA   MANDAGUARI          86975000PR14012022000000000000000000000000000000000000000000000000000000000000000000000000000                              
1040740300289A00000010400969 0009955134254 CARLOS ALBERTO BEZERRA        000145             014012022BRL000000000000000000000000177248000000000   01N1140000000000000000000000000                                        00          0          
1040740300290B   100054010640987CESARIO BOSCHINI              00000               VILA BRASIL    MARIALVA            86975000PR14012022000000000000000000000000000000000000000000000000000000000000000000000000000                              
1040740300291A00000010400969 0009959864974 CARLOS ALBERTO DOS SANTOS     000146             014012022BRL000000000000000000000000107194000000000   01N1140000000000000000000000000                                        00          0          
1040740300292B   100002461167907CLARICE GAZONE                00000               MORUMBI        MANDAGUARI          86975000PR14012022000000000000000000000000000000000000000000000000000000000000000000000000000                              
1040740300293A00000010400969 0009962296426 CARLOS ALBERTO MARTINS RODRIGU000147             014012022BRL000000000000000000000000073614000000000   01N1140000000000000000000000000                                        00          0          
1040740300294B   100048675512953JOAO MOREIRA BRANCO           00000               CENTRO         JANDAIA DO SUL      86900000PR14012022000000000000000000000000000000000000000000000000000000000000000000000000000                              
1040740300295A00000010400969 0009962296388 CARLOS HENRIQUE CARDOZO DE AND000148             014012022BRL000000000000000000000000109786000000000   01N1140000000000000000000000000                                        00          0          
1040740300296B   100063340615934AMELIA L FIGUEIREDO           00000               CJ POPULAR II  MANDAGUARI          86975000PR14012022000000000000000000000000000000000000000000000000000000000000000000000000000                              
1040740300297A00000010400969 0009961479829 CARLOS PEDROSO                000149             014012022BRL000000000000000000000000107194000000000   01N1140000000000000000000000000                                        00          0          
1040740300298B   100046194223987ANDIRA                        00000               JARDIM SAO MARCMANDAGUARI          86975000PR14012022000000000000000000000000000000000000000000000000000000000000000000000000000                              
1040740300299A00000010400969 0009961479810 CARLOS ROBERTO ALVES DA SILVA 000150             014012022BRL000000000000000000000000156019000000000   01N1140000000000000000000000000                                        00          0          
1040740300300B   100005686562962CARLOS MARCATTO               00000               JARDIM ESPLANADMANDAGUARI          86975000PR14012022000000000000000000000000000000000000000000000000000000000000000000000000000                              
1040740300301A00000010400969 0009960668865 CELINA ORSI                   000151             014012022BRL000000000000000000000000084231000000000   01N1140000000000000000000000000                                        00          0          
1040740300302B   100081413386920CAETANO MUNHOZ DA ROCHA       00000               CENTRO         MANDAGUARI          86975000PR14012022000000000000000000000000000000000000000000000000000000000000000000000000000                              
1040740300303A00000010400969 0009960668849 CELIO JOSE ROMAO              000152             014012022BRL000000000000000000000000102201000000000   01N1140000000000000000000000000                                        00          0          
1040740300304B   100071419608991NILTON LAUREANO               00000               JD PLANALTO    MANDAGUARI          86975000PR14012022000000000000000000000000000000000000000000000000000000000000000000000000000                              
1040740300305A00000010400969 0009962294784 CINTIA MAYARA DA SILVA FRANCO 000153             014012022BRL000000000000000000000000092556000000000   01N1140000000000000000000000000                                        00          0          
1040740300306B   100005941698950PROJETADA 2                   00000               JD BOA VISTA   MANDAGUARI          86975000PR14012022000000000000000000000000000000000000000000000000000000000000000000000000000                              
1040740300307A00000010400969 0009961478768 CLAUDECIR TADEI               000154             014012022BRL000000000000000000000000102200000000000   01N1140000000000000000000000000                                        00          0          
1040740300308B   100006325218990FRANCISCO PEREIRA NETO        00000               POPULAR 2      MANDAGUARI          86975000PR14012022000000000000000000000000000000000000000000000000000000000000000000000000000                              
1040740300309A00000010400969 0009959865687 CLAUDETE DE SOUZA LEAO DA SILV000155             014012022BRL000000000000000000000000084890000000000   01N1140000000000000000000000000                                        00          0          
1040740300310B   100005845097908MANUEL LOUREIRO BEXIGA        00000               JARDIM SAO MARCMANDAGUARI          86975000PR14012022000000000000000000000000000000000000000000000000000000000000000000000000000                              
1040740300311A00000010400969 0009959073632 CLAUDINEI MLYNARCZUK DA LUZ   000156             014012022BRL000000000000000000000000135460000000000   01N1140000000000000000000000000                                        00          0          
1040740300312B   100000871565986NELIDO CAVALINE               00000               JD SANTA HELEMAJANDAIA DO SUL      86900000PR14012022000000000000000000000000000000000000000000000000000000000000000000000000000                              
1040740300313A00000010400969 0009959073586 CLAUDIO APARECIDO VIGNOTO     000157             014012022BRL000000000000000000000000104560000000000   01N1140000000000000000000000000                                        00          0          
1040740300314B   100039059880978TADASHE UTIUMI                00000               JD PROGRESSO 1 MANDAGUARI          86975000PR14012022000000000000000000000000000000000000000000000000000000000000000000000000000                              
1040740300315A00000010400969 0009958275886 CLAUDIO DONIZETE ABDO         000158             014012022BRL000000000000000000000000077234000000000   01N1140000000000000000000000000                                        00          0          
1040740300316B   100058461345991ANGELO MATHIAS                00000               VILA PALMA     MANDAGUARI          86975000PR14012022000000000000000000000000000000000000000000000000000000000000000000000000000                              
1040740300317A00000010400969 0009955132723 CLAUDIVAL CARDOSO             000159             014012022BRL000000000000000000000000093213000000000   01N1140000000000000000000000000                                        00          0          
1040740300318B   100001948348918TADASHI UTIUMI                00000               PARQUE INDUSTRIMANDAGUARI          86975000PR14012022000000000000000000000000000000000000000000000000000000000000000000000000000                              
1040740300319A00000010400969 0009959071656 CLEBER ALVES SANTANA          000160             014012022BRL000000000000000000000000084891000000000   01N1140000000000000000000000000                                        00          0          
1040740300320B   100000884564983GOMERCINDO BORTOLANZA         00000               CENTRO         MANDAGUARI          86975000PR14012022000000000000000000000000000000000000000000000000000000000000000000000000000                              
1040740300321A00000010400969 0009957490066 CLERIA MARIA RODRIGUES        000161             014012022BRL000000000000000000000000228599000000000   01N1140000000000000000000000000                                        00          0          
1040740300322B   100089607538900PROFESSOR NILO CAIRO          00000               JARDIM ESPLANADMANDAGUARI          86975000PR14012022000000000000000000000000000000000000000000000000000000000000000000000000000                              
1040740300323A00000010400969 0009959072482 CLEUZA RIBEIRO CARVALHAES DOS 000162             014012022BRL000000000000000000000000070026000000000   01N1140000000000000000000000000                                        00          0          
1040740300324B   100012725195896NICALA CASAWCHIA              00000               JD SOCIAL      MANDAGUARI          86975000PR14012022000000000000000000000000000000000000000000000000000000000000000000000000000                              
1040740300325A00000010400969 0009957490023 COGNOM INALDO DE THIAGO SANTOS000163             014012022BRL000000000000000000000000097622000000000   01N1140000000000000000000000000                                        00          0          
1040740300326B   100005227124957TRAVESSA FLOR                 00000               JD HAWAI       MANDAGUARI          86975000PR14012022000000000000000000000000000000000000000000000000000000000000000000000000000                              
1040740300327A00000010400969 0009957490015 CRISTIANE LUCAS EVANGELISTA DE000164             014012022BRL000000000000000000000000099912000000000   01N1140000000000000000000000000                                        00          0          
1040740300328B   100003573804950CARLOS UBIOLLI                00000               JARDIM LORENA  MANDAGUARI          86975000PR14012022000000000000000000000000000000000000000000000000000000000000000000000000000                              
1040740300329A00000010400969 0009097487647 CRISTIANE RIBEIRO DE AZEVEDO R000165             014012022BRL000000000000000000000000081117000000000   01N1140000000000000000000000000                                        00          0          
1040740300330B   100003261228938ANTONIO MAXIMILIANO DA SILVA  00000               JD BOA VISTA   MANDAGUARI          86975000PR14012022000000000000000000000000000000000000000000000000000000000000000000000000000                              
1040740300331A00000010400969 0009956704810 CRISTIANO BENTO PERASSOLI     000166             014012022BRL000000000000000000000000097622000000000   01N1140000000000000000000000000                                        00          0          
1040740300332B   100005788647975WALDOMIRO CANDIDO VENCESLAU   00000               JD CRISTINA    MANDAGUARI          86975000PR14012022000000000000000000000000000000000000000000000000000000000000000000000000000                              
1040740300333A00000010400969 0009956704771 DAMILTO SOARES LEOPOLDINO     000167             014012022BRL000000000000000000000000117848000000000   01N1140000000000000000000000000                                        00          0          
1040740300334B   100071419373900CHAKER HABRAIN                00000               JARDIM PROGRESSMANDAGUARI          86975000PR14012022000000000000000000000000000000000000000000000000000000000000000000000000000                              
1040740300335A00000010400969 0009955917062 DANIEL MAIA LEITE             000168             014012022BRL000000000000000000000000138831000000000   01N1140000000000000000000000000                                        00          0          
1040740300336B   100006642208943PEDRO VIGNOTO                 00000               BOA VISTA      MANDAGUARI          86975000PR14012022000000000000000000000000000000000000000000000000000000000000000000000000000                              
1040740300337A00000010400969 0009955917038 DANIELE CORTES VIGNOTO LEAL   000169             014012022BRL000000000000000000000000198692000000000   01N1140000000000000000000000000                                        00          0          
1040740300338B   100004821336944DOMINGOS MOIA                 00000               JD PLANALTO    MANDAGUARI          86975000PR14012022000000000000000000000000000000000000000000000000000000000000000000000000000                              
1040740300339A00000010400969 0009955917020 DANIELLE CRISTINA FREITAS SILV000170             014012022BRL000000000000000000000000093213000000000   01N1140000000000000000000000000                                        00          0          
1040740300340B   100006392712941LUIZ TRINTINALHA              00000               POPULAR II     MANDAGUARI          86975000PR14012022000000000000000000000000000000000000000000000000000000000000000000000000000                              
1040740300341A00000010400969 0009955917011 DARCI LIMA DOS SANTOS         000171             014012022BRL000000000000000000000000077234000000000   01N1140000000000000000000000000                                        00          0          
1040740300342B   100001745559973ARQUILINO FERNANDES GULHO     00000               VILA VERDE     MANDAGUARI          86975000PR14012022000000000000000000000000000000000000000000000000000000000000000000000000000                              
1040740300343A00000010400969 0009955916996 DAVI CERQUEIRA BISPO          000172             014012022BRL000000000000000000000000088996000000000   01N1140000000000000000000000000                                        00          0          
1040740300344B   100004198792933MARIANO ROCHA DA SILVA        00000               ERNESTO TROLEZIMANDAGUARI          86975000PR14012022000000000000000000000000000000000000000000000000000000000000000000000000000                              
1040740300345A00000010400969 0009955916988 DAVI TARADENKA                000173             014012022BRL000000000000000000000000102200000000000   01N1140000000000000000000000000                                        00          0          
1040740300346B   100004858841944ADEMAR FRANCA MONTOIA         00000               JD AMERICA     MANDAGUARI          86975000PR14012022000000000000000000000000000000000000000000000000000000000000000000000000000                              
1040740300347A00000010400969 0009955134238 DAVID JULIO SOARES DO VALE    000174             014012022BRL000000000000000000000000177244000000000   01N1140000000000000000000000000                                        00          0          
1040740300348B   100004814162936ARMANDO RODRIGUES             00000               VILA VERDE     MANDAGUARI          86975000PR14012022000000000000000000000000000000000000000000000000000000000000000000000000000                              
1040740300349A00000010400969 0009955915469 DIEULIFETTE CHARLES           000175             014012022BRL000000000000000000000000102200000000000   01N1140000000000000000000000000                                        00          0          
1040740300350B   100001288712960PROJETADA                     00000               JD PARIS       MANDAGUARI          86975000PR14012022000000000000000000000000000000000000000000000000000000000000000000000000000                              
1040740300351A00000010400969 0009958274510 DIEUXIEME CINEUS              000176             014012022BRL000000000000000000000000081117000000000   01N1140000000000000000000000000                                        00          0          
1040740300352B   100070052436250SANTOS DUMONT                 00000               JD ESPLANADA   MANDAGUARI          86975000PR14012022000000000000000000000000000000000000000000000000000000000000000000000000000                              
1040740300353A00000010400969 0009958274669 DIOGO APARECIDO DA SILVA      000177             014012022BRL000000000000000000000000097651000000000   01N1140000000000000000000000000                                        00          0          
1040740300354B   100004831906166JOAO PARRA GARCIA             00000               PARIS          MANDAGUARI          86975000PR14012022000000000000000000000000000000000000000000000000000000000000000000000000000                              
1040740300355A00000010400969 0009957488037 DIONY MARIANO DE MATTOS       000178             014012022BRL000000000000000000000000112408000000000   01N1140000000000000000000000000                                        00          0          
1040740300356B   100006715969930EUGENIO RAFAEL                00000               CONJ IPACARAY  MANDAGUARI          86975000PR14012022000000000000000000000000000000000000000000000000000000000000000000000000000                              
1040740300357A00000010400969 0009958274227 DIOVANA MARIA FORNACCIARI     000179             014012022BRL000000000000000000000000076678000000000   01N1140000000000000000000000000                                        00          0          
1040740300358B   100008520553907JOAO BATISTA FRUJUELLI        00000               JD CRISTINA    MANDAGUARI          86975000PR14012022000000000000000000000000000000000000000000000000000000000000000000000000000                              
1040740300359A00000010400969 0009962296353 DJALMA BONOMINI DE SALES      000180             014012022BRL000000000000000000000000093151000000000   01N1140000000000000000000000000                                        00          0          
1040740300360B   100000374459959JOAO BORTONCELO               00000               VILA PAIAO     JANDAIA DO SUL      86900000PR14012022000000000000000000000000000000000000000000000000000000000000000000000000000                              
1040740300361A00000010400969 0009962296345 DORIVAL APARECIDO GRELLA      000181             014012022BRL000000000000000000000000102423000000000   01N1140000000000000000000000000                                        00          0          
1040740300362B   100074920553900MIGUEL GARCIA                 00000               BOA VISTA      MANDAGUARI          86975000PR14012022000000000000000000000000000000000000000000000000000000000000000000000000000                              
1040740300363A00000010400969 0009955916490 DOUGLAS VILELA                000182             014012022BRL000000000000000000000000123334000000000   01N1140000000000000000000000000                                        00          0          
1040740300364B   100005833232945ERMILLA MATOS DE ALMEIDA      00000               JD NOVA AMERICAMANDAGUARI          86975000PR14012022000000000000000000000000000000000000000000000000000000000000000000000000000                              
1040740300365A00000010400969 0009961479730 EDER APARECIDO AZZANI FINETO  000183             014012022BRL000000000000000000000000141889000000000   01N1140000000000000000000000000                                        00          0          
1040740300366B   100004308321921SANTOS DUMONT                 00000               JD ESPLANADA   MANDAGUARI          86975000PR14012022000000000000000000000000000000000000000000000000000000000000000000000000000                              
1040740300367A00000010400969 0009956704267 EDGARD PERASSOLI              000184             014012022BRL000000000000000000000000084891000000000   01N1140000000000000000000000000                                        00          0          
1040740300368B   100061192724968NICO LU CASA VCHEIA           00000               JD BOA VISTA   MANDAGUARI          86975000PR14012022000000000000000000000000000000000000000000000000000000000000000000000000000                              
1040740300369A00000010400969 0009960668750 EDISON CASSIMIRO DA CUNHA     000185             014012022BRL000000000000000000000000170343000000000   01N1140000000000000000000000000                                        00          0          
1040740300370B   100005670433980GABRIEL MANHA                 00000               JARDIM ESPLANADMANDAGUARI          86975000PR14012022000000000000000000000000000000000000000000000000000000000000000000000000000                              
1040740300371A00000010400969 0009960668741 EDISON MARQUES DE OLIVEIRA    000186             014012022BRL000000000000000000000000097762000000000   01N1140000000000000000000000000                                        00          0          
1040740300372B   100058628258949MANOEL ANTUNES PEREIRA        00000               CENTRO         MANDAGUARI          86975000PR14012022000000000000000000000000000000000000000000000000000000000000000000000000000                              
1040740300373A00000010400969 0009940362280 EDMUR RAFAEL DOS SANTOS ROBERT000187             014012022BRL000000000000000000000000065480000000000   01N1140000000000000000000000000                                        00          0          
1040740300374B   100006958968905TADASHI UTIUME                00000               JD PROGRESSO 2 MANDAGUARI          86975000PR14012022000000000000000000000000000000000000000000000000000000000000000000000000000                              
1040740300375A00000010400969 0009956704259 EDSON WALTER GONCALVES LOPES  000188             014012022BRL000000000000000000000000156019000000000   01N1140000000000000000000000000                                        00          0          
1040740300376B   100001762639939IGNACIO JOSE DE CARVALHO      00000               JD PROGRESSO 2 MANDAGUARI          86975000PR14012022000000000000000000000000000000000000000000000000000000000000000000000000000                              
1040740300377A00000010400969 0009955916414 EDUARDO DA SILVA VERIDIANO    000189             014012022BRL000000000000000000000000091008000000000   01N1140000000000000000000000000                                        00          0          
1040740300378B   100006672455965JOAO MANHOLER                 00000               JARDIM PROGRESSMANDAGUARI          86975000PR14012022000000000000000000000000000000000000000000000000000000000000000000000000000                              
1040740300379A00000010400969 0009915155650 ELAINE CRISTINA DE ARAUJO     000190             014012022BRL000000000000000000000000070353000000000   01N1140000000000000000000000000                                        00          0          
1040740300380B   100031563312875DOMINGOS MOIA                 00000               JD PLANALTO    MANDAGUARI          86975000PR14012022000000000000000000000000000000000000000000000000000000000000000000000000000                              
1040740300381A00000010400969 0009960666757 ELIANA MARIA DA COSTA         000191             014012022BRL000000000000000000000000088996000000000   01N1140000000000000000000000000                                        00          0          
1040740300382B   100007177853944ARMANDO RODRIGUES             00000               JD VILA VERDE  MANDAGUARI          86975000PR14012022000000000000000000000000000000000000000000000000000000000000000000000000000                              
1040740300383A00000010400969 0009955915159 ELOIZA BERTI DE CARVALHO      000192             014012022BRL000000000000000000000000070026000000000   01N1140000000000000000000000000                                        00          0          
1040740300384B   100002584585936JOSE FRANCISCO DA MATA        00000               JD AMERICA     MANDAGUARI          86975000PR14012022000000000000000000000000000000000000000000000000000000000000000000000000000                              
1040740300385A00000010400969 0009848869056 ELTER APARECIDO VENANCIO      000193             014012022BRL000000000000000000000000065480000000000   01N1140000000000000000000000000                                        00          0          
1040740300386B   100008339571982VITORIA DO SAO PEDRO KM17     00000               ZONA RURAL     MANDAGUARI          86975000PR14012022000000000000000000000000000000000000000000000000000000000000000000000000000                              
1040740300387A00000010400969 0009959072490 ELTON JESER DINIZ DOS SANTOS  000194             014012022BRL000000000000000000000000602108000000000   01N1140000000000000000000000000                                        00          0          
1040740300388B   100002848057939MONTE CACEROS                 00000               VILA OPERARIA ZMARINGA             87050180PR14012022000000000000000000000000000000000000000000000000000000000000000000000000000                              
1040740300389A00000010400969 0009956703295 EMMANUEL NOEL                 000195             014012022BRL000000000000000000000000081117000000000   01N1140000000000000000000000000                                        00          0          
1040740300390B   100070101926260ANGELO PARAZI                 00000               CENTRO         MANDAGUARI          86975000PR14012022000000000000000000000000000000000000000000000000000000000000000000000000000                              
1040740300391A00000010400969 0009838349424 ERALDO PEREIRA DE SOUZA       000196             014012022BRL000000000000000000000000077223000000000   01N1140000000000000000000000000                                        00          0          
1040740300392B   100002987425945XV DE NOVEMBRO                00000               JARDIM ESPLANADMANDAGUARI          86975000PR14012022000000000000000000000000000000000000000000000000000000000000000000000000000                              
1040740300393A00000010400969 0009956704372 EVANDRO LUIZ DEL ANGELO       000197             014012022BRL000000000000000000000000223457000000000   01N1140000000000000000000000000                                        00          0          
1040740300394B   100000761565914DOMINGOS FRANCISCO PAES       00000               JD CRISTINA    MANDAGUARI          86975000PR14012022000000000000000000000000000000000000000000000000000000000000000000000000000                              
1040740300395A00000010400969 0009957489122 EVERLAINE SILVA DA VEIGA BARBO000198             014012022BRL000000000000000000000000189744000000000   01N1140000000000000000000000000                                        00          0          
1040740300396B   100004345904951ARTHUR BELINE                 00000               JD MORUMBI     MANDAGUARI          86975000PR14012022000000000000000000000000000000000000000000000000000000000000000000000000000                              
1040740300397A00000010400969 0009959071966 FABIANO HIDEKI NAKAMURA       000199             014012022BRL000000000000000000000000202160000000000   01N1140000000000000000000000000                                        00          0          
1040740300398B   100003540756914DOMINGOS MOIA                 00000               JARDIM PLANALTOMANDAGUARI          86975000PR14012022000000000000000000000000000000000000000000000000000000000000000000000000000                              
1040740300399A00000010400969 0009955916953 FABIO ALEX JORDAO             000200             014012022BRL000000000000000000000000281120000000000   01N1140000000000000000000000000                                        00          0          
1040740300400B   100000571623956MAXIMIANO JOSE DE ANDRADE     00000               JD SAO MARCOS  MANDAGUARI          86975000PR14012022000000000000000000000000000000000000000000000000000000000000000000000000000                              
1040740300401A00000010400969 0009955134181 FABIO JOSE FERREIRA DE CASTRO 000201             014012022BRL000000000000000000000000202311000000000   01N1140000000000000000000000000                                        00          0          
1040740300402B   100004128159905LUIZ TRINTINALHA              00000               POPULAR II     MANDAGUARI          86975000PR14012022000000000000000000000000000000000000000000000000000000000000000000000000000                              
1040740300403A00000010400969 0009962296299 FERNANDO IRINEU GOMES VALENTIN000202             014012022BRL000000000000000000000000159527000000000   01N1140000000000000000000000000                                        00          0          
1040740300404B   100007381628929ADEMAC FRANCA MONTOIA         00000               JD AMERICA     MANDAGUARI          86975000PR14012022000000000000000000000000000000000000000000000000000000000000000000000000000                              
1040740300405A00000010400969 0009962296272 FLAVIANO FERNANDES FARIAS     000203             014012022BRL000000000000000000000000162541000000000   01N1140000000000000000000000000                                        00          0          
1040740300406B   100007182011913JANDIRA TELES DE SOUZA        00000               CENTRO         MANDAGUARI          86975000PR14012022000000000000000000000000000000000000000000000000000000000000000000000000000                              
1040740300407A00000010400969 0009958275320 FRANCIELE DE NOVAIS PEREIRA SI000204             014012022BRL000000000000000000000000084890000000000   01N1140000000000000000000000000                                        00          0          
1040740300408B   100006985060900BENEDITO DE FREITAS           00000               JD BOA VISTA   MANDAGUARI          86975000PR14012022000000000000000000000000000000000000000000000000000000000000000000000000000                              
1040740300409A00000010400969 0009137480346 FRANCIELLE SANTOS DE SOUSA    000205             014012022BRL000000000000000000000000132249000000000   01N1140000000000000000000000000                                        00          0          
1040740300410B   100094772657991MANDAGUARI                    00000               RESIDENCIAL OURMANDAGUARI          86975000PR14012022000000000000000000000000000000000000000000000000000000000000000000000000000                              
1040740300411A00000010400969 0009961479721 FRANCISCO JOAO DE AQUINO      000206             014012022BRL000000000000000000000000123618000000000   01N1140000000000000000000000000                                        00          0          
